{
  "contractName": "RansomwareDetection",
  "abi": [
    {
      "inputs": [
        {
          "internalType": "string",
          "name": "name_",
          "type": "string"
        },
        {
          "internalType": "string",
          "name": "email_",
          "type": "string"
        }
      ],
      "stateMutability": "nonpayable",
      "type": "constructor"
    },
    {
      "inputs": [
        {
          "internalType": "address",
          "name": "",
          "type": "address"
        }
      ],
      "name": "userFiles",
      "outputs": [
        {
          "internalType": "string",
          "name": "",
          "type": "string"
        }
      ],
      "stateMutability": "view",
      "type": "function"
    }
  ],
  "bytecode": "0x608060405234801562000010575f80fd5b5060405162000c0938038062000c098339818101604052810190620000369190620004f4565b5f60405180608001604052805f8081111562000057576200005662000577565b5b81526020013373ffffffffffffffffffffffffffffffffffffffff16815260200184815260200183815250905062000095816200009e60201b60201c565b5050506200093d565b5f73ffffffffffffffffffffffffffffffffffffffff16816020015173ffffffffffffffffffffffffffffffffffffffff1603620000da575f80fd5b620000f3815f015182602001516200022260201b60201c565b1562000136576040517f08c379a00000000000000000000000000000000000000000000000000000000081526004016200012d9062000602565b60405180910390fd5b805f80836020015173ffffffffffffffffffffffffffffffffffffffff1673ffffffffffffffffffffffffffffffffffffffff1681526020019081526020015f205f820151815f015f6101000a81548160ff02191690835f811115620001a157620001a062000577565b5b02179055506020820151815f0160016101000a81548173ffffffffffffffffffffffffffffffffffffffff021916908373ffffffffffffffffffffffffffffffffffffffff160217905550604082015181600101908162000203919062000859565b5060608201518160020190816200021b919062000859565b5090505050565b5f8073ffffffffffffffffffffffffffffffffffffffff168273ffffffffffffffffffffffffffffffffffffffff16036200025b575f80fd5b5f73ffffffffffffffffffffffffffffffffffffffff165f808473ffffffffffffffffffffffffffffffffffffffff1673ffffffffffffffffffffffffffffffffffffffff1681526020019081526020015f205f0160019054906101000a900473ffffffffffffffffffffffffffffffffffffffff1673ffffffffffffffffffffffffffffffffffffffff1614158015620003675750825f81111562000306576200030562000577565b5b5f808473ffffffffffffffffffffffffffffffffffffffff1673ffffffffffffffffffffffffffffffffffffffff1681526020019081526020015f205f015f9054906101000a900460ff165f81111562000365576200036462000577565b5b145b905092915050565b5f604051905090565b5f80fd5b5f80fd5b5f80fd5b5f80fd5b5f601f19601f8301169050919050565b7f4e487b71000000000000000000000000000000000000000000000000000000005f52604160045260245ffd5b620003d08262000388565b810181811067ffffffffffffffff82111715620003f257620003f162000398565b5b80604052505050565b5f620004066200036f565b9050620004148282620003c5565b919050565b5f67ffffffffffffffff82111562000436576200043562000398565b5b620004418262000388565b9050602081019050919050565b5f5b838110156200046d57808201518184015260208101905062000450565b5f8484015250505050565b5f6200048e620004888462000419565b620003fb565b905082815260208101848484011115620004ad57620004ac62000384565b5b620004ba8482856200044e565b509392505050565b5f82601f830112620004d957620004d862000380565b5b8151620004eb84826020860162000478565b91505092915050565b5f80604083850312156200050d576200050c62000378565b5b5f83015167ffffffffffffffff8111156200052d576200052c6200037c565b5b6200053b85828601620004c2565b925050602083015167ffffffffffffffff8111156200055f576200055e6200037c565b5b6200056d85828601620004c2565b9150509250929050565b7f4e487b71000000000000000000000000000000000000000000000000000000005f52602160045260245ffd5b5f82825260208201905092915050565b7f53616d65207573657220776974682073616d6520726f6c6520657869737473005f82015250565b5f620005ea601f83620005a4565b9150620005f782620005b4565b602082019050919050565b5f6020820190508181035f8301526200061b81620005dc565b9050919050565b5f81519050919050565b7f4e487b71000000000000000000000000000000000000000000000000000000005f52602260045260245ffd5b5f60028204905060018216806200067157607f821691505b6020821081036200068757620006866200062c565b5b50919050565b5f819050815f5260205f209050919050565b5f6020601f8301049050919050565b5f82821b905092915050565b5f60088302620006eb7fffffffffffffffffffffffffffffffffffffffffffffffffffffffffffffffff82620006ae565b620006f78683620006ae565b95508019841693508086168417925050509392505050565b5f819050919050565b5f819050919050565b5f620007416200073b62000735846200070f565b62000718565b6200070f565b9050919050565b5f819050919050565b6200075c8362000721565b620007746200076b8262000748565b848454620006ba565b825550505050565b5f90565b6200078a6200077c565b6200079781848462000751565b505050565b5b81811015620007be57620007b25f8262000780565b6001810190506200079d565b5050565b601f8211156200080d57620007d7816200068d565b620007e2846200069f565b81016020851015620007f2578190505b6200080a62000801856200069f565b8301826200079c565b50505b505050565b5f82821c905092915050565b5f6200082f5f198460080262000812565b1980831691505092915050565b5f6200084983836200081e565b9150826002028217905092915050565b620008648262000622565b67ffffffffffffffff81111562000880576200087f62000398565b5b6200088c825462000659565b62000899828285620007c2565b5f60209050601f831160018114620008cf575f8415620008ba578287015190505b620008c685826200083c565b86555062000935565b601f198416620008df866200068d565b5f5b828110156200090857848901518255600182019150602085019450602081019050620008e1565b8683101562000928578489015162000924601f8916826200081e565b8355505b6001600288020188555050505b505050505050565b6102be806200094b5f395ff3fe608060405234801561000f575f80fd5b5060043610610029575f3560e01c8063b0b190721461002d575b5f80fd5b61004760048036038101906100429190610156565b61005d565b604051610054919061020b565b60405180910390f35b6001602052805f5260405f205f91509050805461007990610258565b80601f01602080910402602001604051908101604052809291908181526020018280546100a590610258565b80156100f05780601f106100c7576101008083540402835291602001916100f0565b820191905f5260205f20905b8154815290600101906020018083116100d357829003601f168201915b505050505081565b5f80fd5b5f73ffffffffffffffffffffffffffffffffffffffff82169050919050565b5f610125826100fc565b9050919050565b6101358161011b565b811461013f575f80fd5b50565b5f813590506101508161012c565b92915050565b5f6020828403121561016b5761016a6100f8565b5b5f61017884828501610142565b91505092915050565b5f81519050919050565b5f82825260208201905092915050565b5f5b838110156101b857808201518184015260208101905061019d565b5f8484015250505050565b5f601f19601f8301169050919050565b5f6101dd82610181565b6101e7818561018b565b93506101f781856020860161019b565b610200816101c3565b840191505092915050565b5f6020820190508181035f83015261022381846101d3565b905092915050565b7f4e487b71000000000000000000000000000000000000000000000000000000005f52602260045260245ffd5b5f600282049050600182168061026f57607f821691505b6020821081036102825761028161022b565b5b5091905056fea26469706673582212205f419d1dd5712eb24801f2c284cc12e73170be2301b0e5bb4f8d03aa8865a06864736f6c63430008150033",
  "immutableReferences": {},
  "source": "// SPDX-License-Identifier: MIT\r\npragma solidity ^0.8.0;\r\n\r\nimport \"./Types.sol\";\r\nimport \"./Users.sol\";  \r\n\r\ncontract RansomwareDetection is Users {\r\n\r\n     using Types for *; \r\n\r\n    mapping(address => string) public userFiles;\r\n\r\n    constructor(string memory name_, string memory email_) {\r\n        Types.UserDetails memory mn_ = Types.UserDetails({\r\n            role: Types.UserRole.User,\r\n            id_: msg.sender,\r\n            name: name_,\r\n            email: email_\r\n        });\r\n        add(mn_);\r\n    }\r\n\r\n\r\n    \r\n}\r\n",
  "sourcePath": "E:\\ReactJsApp\\Ransomware-Detection\\blockchain\\contracts\\RansomwareDetection.sol",
  "compiler": {
    "name": "solc",
    "version": "0.8.21+commit.d9974bed.Emscripten.clang"
  },
  "schemaVersion": "3.4.16",
  "updatedAt": "2023-11-23T20:49:54.349Z",
  "devdoc": {
    "kind": "dev",
    "methods": {},
    "version": 1
  },
  "userdoc": {
    "kind": "user",
    "methods": {},
    "version": 1
  }
}